{
  "address": "0x5FbDB2315678afecb367f032d93F642f64180aa3",
  "abi": [
    {
      "inputs": [],
      "stateMutability": "nonpayable",
      "type": "constructor"
    },
    {
      "anonymous": false,
      "inputs": [
        {
          "indexed": true,
          "internalType": "string",
          "name": "albumUuid",
          "type": "string"
        },
        {
          "indexed": false,
          "internalType": "string",
          "name": "rawUuid",
          "type": "string"
        },
        {
          "indexed": true,
          "internalType": "address",
          "name": "buyer",
          "type": "address"
        },
        {
          "indexed": true,
          "internalType": "uint256",
          "name": "time",
          "type": "uint256"
        },
        {
          "indexed": false,
          "internalType": "uint256",
          "name": "quantity",
          "type": "uint256"
        }
      ],
      "name": "AlbumBought",
      "type": "event"
    },
    {
      "anonymous": false,
      "inputs": [
        {
          "indexed": true,
          "internalType": "string",
          "name": "albumUuid",
          "type": "string"
        },
        {
          "indexed": true,
          "internalType": "address",
          "name": "customer",
          "type": "address"
        },
        {
          "indexed": false,
          "internalType": "uint256",
          "name": "timeDelivered",
          "type": "uint256"
        }
      ],
      "name": "OrderDelivered",
      "type": "event"
    },
    {
      "inputs": [
        {
          "internalType": "string",
          "name": "_uuid",
          "type": "string"
        },
        {
          "internalType": "string",
          "name": "_title",
          "type": "string"
        },
        {
          "internalType": "uint256",
          "name": "_price",
          "type": "uint256"
        },
        {
          "internalType": "uint256",
          "name": "_quantity",
          "type": "uint256"
        }
      ],
      "name": "addAlbum",
      "outputs": [],
      "stateMutability": "nonpayable",
      "type": "function"
    },
    {
      "inputs": [
        {
          "internalType": "uint256",
          "name": "",
          "type": "uint256"
        }
      ],
      "name": "albums",
      "outputs": [
        {
          "internalType": "uint256",
          "name": "index",
          "type": "uint256"
        },
        {
          "internalType": "string",
          "name": "uuid",
          "type": "string"
        },
        {
          "internalType": "string",
          "name": "title",
          "type": "string"
        },
        {
          "internalType": "uint256",
          "name": "price",
          "type": "uint256"
        },
        {
          "internalType": "uint256",
          "name": "quantity",
          "type": "uint256"
        }
      ],
      "stateMutability": "view",
      "type": "function"
    },
    {
      "inputs": [],
      "name": "allAlbums",
      "outputs": [
        {
          "components": [
            {
              "internalType": "uint256",
              "name": "index",
              "type": "uint256"
            },
            {
              "internalType": "string",
              "name": "uuid",
              "type": "string"
            },
            {
              "internalType": "string",
              "name": "title",
              "type": "string"
            },
            {
              "internalType": "uint256",
              "name": "price",
              "type": "uint256"
            },
            {
              "internalType": "uint256",
              "name": "quantity",
              "type": "uint256"
            }
          ],
          "internalType": "struct MusicShop.Album[]",
          "name": "",
          "type": "tuple[]"
        }
      ],
      "stateMutability": "view",
      "type": "function"
    },
    {
      "inputs": [
        {
          "internalType": "uint256",
          "name": "_index",
          "type": "uint256"
        },
        {
          "internalType": "uint256",
          "name": "_quantity",
          "type": "uint256"
        }
      ],
      "name": "buy",
      "outputs": [],
      "stateMutability": "payable",
      "type": "function"
    },
    {
      "inputs": [],
      "name": "currentIndex",
      "outputs": [
        {
          "internalType": "uint256",
          "name": "",
          "type": "uint256"
        }
      ],
      "stateMutability": "view",
      "type": "function"
    },
    {
      "inputs": [],
      "name": "currentOrderId",
      "outputs": [
        {
          "internalType": "uint256",
          "name": "",
          "type": "uint256"
        }
      ],
      "stateMutability": "view",
      "type": "function"
    },
    {
      "inputs": [
        {
          "internalType": "uint256",
          "name": "_index",
          "type": "uint256"
        }
      ],
      "name": "delivery",
      "outputs": [],
      "stateMutability": "nonpayable",
      "type": "function"
    },
    {
      "inputs": [],
      "name": "fund",
      "outputs": [],
      "stateMutability": "payable",
      "type": "function"
    },
    {
      "inputs": [
        {
          "internalType": "uint256",
          "name": "",
          "type": "uint256"
        }
      ],
      "name": "orders",
      "outputs": [
        {
          "internalType": "uint256",
          "name": "orderId",
          "type": "uint256"
        },
        {
          "internalType": "string",
          "name": "albumUuid",
          "type": "string"
        },
        {
          "internalType": "address",
          "name": "customer",
          "type": "address"
        },
        {
          "internalType": "uint256",
          "name": "orderedAt",
          "type": "uint256"
        },
        {
          "internalType": "enum MusicShop.OrderStatus",
          "name": "status",
          "type": "uint8"
        },
        {
          "internalType": "uint256",
          "name": "quantity",
          "type": "uint256"
        }
      ],
      "stateMutability": "view",
      "type": "function"
    },
    {
      "inputs": [],
      "name": "owner",
      "outputs": [
        {
          "internalType": "address",
          "name": "",
          "type": "address"
        }
      ],
      "stateMutability": "view",
      "type": "function"
    },
    {
      "inputs": [
        {
          "internalType": "uint256",
          "name": "_amount",
          "type": "uint256"
        },
        {
          "internalType": "address",
          "name": "_to",
          "type": "address"
        }
      ],
      "name": "withDraw",
      "outputs": [],
      "stateMutability": "nonpayable",
      "type": "function"
    },
    {
      "stateMutability": "payable",
      "type": "receive"
    }
  ],
  "transactionHash": "0x64c224aab112e24b0703cdfbeff2fb04e1cf2a2b0c2181cb83c534eaa290901f",
  "args": [],
  "numDeployments": 1,
  "solcInputHash": "2cf2717c01cf323ac6b97346c6247a49",
  "bytecode": "0x608060405234801561001057600080fd5b50336000806101000a81548173ffffffffffffffffffffffffffffffffffffffff021916908373ffffffffffffffffffffffffffffffffffffffff160217905550611d0a806100606000396000f3fe6080604052600436106100a05760003560e01c8063a85c38ef11610064578063a85c38ef146101b8578063b60d4288146101fa578063c557f97914610204578063d6febde81461022d578063ea5df05914610249578063ec34297a1461028a576100e0565b80631144fd72146100e557806326987b601461010e578063845fb211146101395780638da5cb5b14610162578063925931fc1461018d576100e0565b366100e0576040517f08c379a00000000000000000000000000000000000000000000000000000000081526004016100d790611142565b60405180910390fd5b600080fd5b3480156100f157600080fd5b5061010c600480360381019061010791906111a2565b6102b5565b005b34801561011a57600080fd5b5061012361049c565b60405161013091906111de565b60405180910390f35b34801561014557600080fd5b50610160600480360381019061015b9190611257565b6104a2565b005b34801561016e57600080fd5b506101776105be565b60405161018491906112a6565b60405180910390f35b34801561019957600080fd5b506101a26105e2565b6040516101af91906111de565b60405180910390f35b3480156101c457600080fd5b506101df60048036038101906101da91906111a2565b6105e8565b6040516101f1969594939291906113c0565b60405180910390f35b6102026106e9565b005b34801561021057600080fd5b5061022b6004803603810190610226919061148d565b610779565b005b61024760048036038101906102429190611534565b61095b565b005b34801561025557600080fd5b50610270600480360381019061026b91906111a2565b610c80565b604051610281959493929190611574565b60405180910390f35b34801561029657600080fd5b5061029f610dd6565b6040516102ac919061176d565b60405180910390f35b60008054906101000a900473ffffffffffffffffffffffffffffffffffffffff1673ffffffffffffffffffffffffffffffffffffffff163373ffffffffffffffffffffffffffffffffffffffff1614610343576040517f08c379a000000000000000000000000000000000000000000000000000000000815260040161033a906117db565b60405180910390fd5b600060028281548110610359576103586117fb565b5b9060005260206000209060060201905060018081111561037c5761037b611349565b5b8160040160009054906101000a900460ff1660018111156103a05761039f611349565b5b036103e0576040517f08c379a00000000000000000000000000000000000000000000000000000000081526004016103d790611876565b60405180910390fd5b60018160040160006101000a81548160ff0219169083600181111561040857610407611349565b5b02179055508060020160009054906101000a900473ffffffffffffffffffffffffffffffffffffffff1673ffffffffffffffffffffffffffffffffffffffff16816001016040516104599190611995565b60405180910390207f42d4271ab53ccf6030b63b729f9a2aa750783535cde717ffb61779d75d1d5c3c4260405161049091906111de565b60405180910390a35050565b60035481565b60008054906101000a900473ffffffffffffffffffffffffffffffffffffffff1673ffffffffffffffffffffffffffffffffffffffff163373ffffffffffffffffffffffffffffffffffffffff1614610530576040517f08c379a0000000000000000000000000000000000000000000000000000000008152600401610527906117db565b60405180910390fd5b47821115610573576040517f08c379a000000000000000000000000000000000000000000000000000000000815260040161056a906119f8565b60405180910390fd5b8073ffffffffffffffffffffffffffffffffffffffff166108fc839081150290604051600060405180830381858888f193505050501580156105b9573d6000803e3d6000fd5b505050565b60008054906101000a900473ffffffffffffffffffffffffffffffffffffffff1681565b60045481565b600281815481106105f857600080fd5b9060005260206000209060060201600091509050806000015490806001018054610621906118c5565b80601f016020809104026020016040519081016040528092919081815260200182805461064d906118c5565b801561069a5780601f1061066f5761010080835404028352916020019161069a565b820191906000526020600020905b81548152906001019060200180831161067d57829003601f168201915b5050505050908060020160009054906101000a900473ffffffffffffffffffffffffffffffffffffffff16908060030154908060040160009054906101000a900460ff16908060050154905086565b60008054906101000a900473ffffffffffffffffffffffffffffffffffffffff1673ffffffffffffffffffffffffffffffffffffffff163373ffffffffffffffffffffffffffffffffffffffff1614610777576040517f08c379a000000000000000000000000000000000000000000000000000000000815260040161076e906117db565b60405180910390fd5b565b60008054906101000a900473ffffffffffffffffffffffffffffffffffffffff1673ffffffffffffffffffffffffffffffffffffffff163373ffffffffffffffffffffffffffffffffffffffff1614610807576040517f08c379a00000000000000000000000000000000000000000000000000000000081526004016107fe906117db565b60405180910390fd5b60016040518060a00160405280600354815260200188888080601f016020809104026020016040519081016040528093929190818152602001838380828437600081840152601f19601f82011690508083019250505050505050815260200186868080601f016020809104026020016040519081016040528093929190818152602001838380828437600081840152601f19601f820116905080830192505050505050508152602001848152602001838152509080600181540180825580915050600190039060005260206000209060050201600090919091909150600082015181600001556020820151816001019080519060200190610909929190610fed565b506040820151816002019080519060200190610926929190610fed565b506060820151816003015560808201518160040155505060036000815461094c90611a47565b91905081905550505050505050565b600060018381548110610971576109706117fb565b5b906000526020600020906005020190508181600301546109919190611a8f565b34146109d2576040517f08c379a00000000000000000000000000000000000000000000000000000000081526004016109c990611b35565b60405180910390fd5b81816004015411610a18576040517f08c379a0000000000000000000000000000000000000000000000000000000008152600401610a0f90611ba1565b60405180910390fd5b81816004016000828254610a2c9190611bc1565b9250508190555060026040518060c001604052806004548152602001836001018054610a57906118c5565b80601f0160208091040260200160405190810160405280929190818152602001828054610a83906118c5565b8015610ad05780601f10610aa557610100808354040283529160200191610ad0565b820191906000526020600020905b815481529060010190602001808311610ab357829003601f168201915b505050505081526020013373ffffffffffffffffffffffffffffffffffffffff16815260200142815260200160006001811115610b1057610b0f611349565b5b8152602001848152509080600181540180825580915050600190039060005260206000209060060201600090919091909150600082015181600001556020820151816001019080519060200190610b68929190610fed565b5060408201518160020160006101000a81548173ffffffffffffffffffffffffffffffffffffffff021916908373ffffffffffffffffffffffffffffffffffffffff1602179055506060820151816003015560808201518160040160006101000a81548160ff02191690836001811115610be557610be4611349565b5b021790555060a08201518160050155505060046000815480929190610c0990611a47565b9190505550423373ffffffffffffffffffffffffffffffffffffffff1682600101604051610c379190611995565b60405180910390207f267f4f751ab194c1be4f8d4a714d650b931cd77b2b2d058e850ce510df4195158460010186604051610c73929190611c75565b60405180910390a4505050565b60018181548110610c9057600080fd5b9060005260206000209060050201600091509050806000015490806001018054610cb9906118c5565b80601f0160208091040260200160405190810160405280929190818152602001828054610ce5906118c5565b8015610d325780601f10610d0757610100808354040283529160200191610d32565b820191906000526020600020905b815481529060010190602001808311610d1557829003601f168201915b505050505090806002018054610d47906118c5565b80601f0160208091040260200160405190810160405280929190818152602001828054610d73906118c5565b8015610dc05780601f10610d9557610100808354040283529160200191610dc0565b820191906000526020600020905b815481529060010190602001808311610da357829003601f168201915b5050505050908060030154908060040154905085565b6060600060018054905067ffffffffffffffff811115610df957610df8611ca5565b5b604051908082528060200260200182016040528015610e3257816020015b610e1f611073565b815260200190600190039081610e175790505b50905060005b600180549050811015610fe55760018181548110610e5957610e586117fb565b5b90600052602060002090600502016040518060a001604052908160008201548152602001600182018054610e8c906118c5565b80601f0160208091040260200160405190810160405280929190818152602001828054610eb8906118c5565b8015610f055780601f10610eda57610100808354040283529160200191610f05565b820191906000526020600020905b815481529060010190602001808311610ee857829003601f168201915b50505050508152602001600282018054610f1e906118c5565b80601f0160208091040260200160405190810160405280929190818152602001828054610f4a906118c5565b8015610f975780601f10610f6c57610100808354040283529160200191610f97565b820191906000526020600020905b815481529060010190602001808311610f7a57829003601f168201915b5050505050815260200160038201548152602001600482015481525050828281518110610fc757610fc66117fb565b5b60200260200101819052508080610fdd90611a47565b915050610e38565b508091505090565b828054610ff9906118c5565b90600052602060002090601f01602090048101928261101b5760008555611062565b82601f1061103457805160ff1916838001178555611062565b82800160010185558215611062579182015b82811115611061578251825591602001919060010190611046565b5b50905061106f91906110a2565b5090565b6040518060a0016040528060008152602001606081526020016060815260200160008152602001600081525090565b5b808211156110bb5760008160009055506001016110a3565b5090565b600082825260208201905092915050565b7f506c732c20757365206275792066756e6320746f2063686f6f736520616c626960008201527f6d21000000000000000000000000000000000000000000000000000000000000602082015250565b600061112c6022836110bf565b9150611137826110d0565b604082019050919050565b6000602082019050818103600083015261115b8161111f565b9050919050565b600080fd5b600080fd5b6000819050919050565b61117f8161116c565b811461118a57600080fd5b50565b60008135905061119c81611176565b92915050565b6000602082840312156111b8576111b7611162565b5b60006111c68482850161118d565b91505092915050565b6111d88161116c565b82525050565b60006020820190506111f360008301846111cf565b92915050565b600073ffffffffffffffffffffffffffffffffffffffff82169050919050565b6000611224826111f9565b9050919050565b61123481611219565b811461123f57600080fd5b50565b6000813590506112518161122b565b92915050565b6000806040838503121561126e5761126d611162565b5b600061127c8582860161118d565b925050602061128d85828601611242565b9150509250929050565b6112a081611219565b82525050565b60006020820190506112bb6000830184611297565b92915050565b600081519050919050565b60005b838110156112ea5780820151818401526020810190506112cf565b838111156112f9576000848401525b50505050565b6000601f19601f8301169050919050565b600061131b826112c1565b61132581856110bf565b93506113358185602086016112cc565b61133e816112ff565b840191505092915050565b7f4e487b7100000000000000000000000000000000000000000000000000000000600052602160045260246000fd5b6002811061138957611388611349565b5b50565b600081905061139a82611378565b919050565b60006113aa8261138c565b9050919050565b6113ba8161139f565b82525050565b600060c0820190506113d560008301896111cf565b81810360208301526113e78188611310565b90506113f66040830187611297565b61140360608301866111cf565b61141060808301856113b1565b61141d60a08301846111cf565b979650505050505050565b600080fd5b600080fd5b600080fd5b60008083601f84011261144d5761144c611428565b5b8235905067ffffffffffffffff81111561146a5761146961142d565b5b60208301915083600182028301111561148657611485611432565b5b9250929050565b600080600080600080608087890312156114aa576114a9611162565b5b600087013567ffffffffffffffff8111156114c8576114c7611167565b5b6114d489828a01611437565b9650965050602087013567ffffffffffffffff8111156114f7576114f6611167565b5b61150389828a01611437565b9450945050604061151689828a0161118d565b925050606061152789828a0161118d565b9150509295509295509295565b6000806040838503121561154b5761154a611162565b5b60006115598582860161118d565b925050602061156a8582860161118d565b9150509250929050565b600060a08201905061158960008301886111cf565b818103602083015261159b8187611310565b905081810360408301526115af8186611310565b90506115be60608301856111cf565b6115cb60808301846111cf565b9695505050505050565b600081519050919050565b600082825260208201905092915050565b6000819050602082019050919050565b61160a8161116c565b82525050565b600082825260208201905092915050565b600061162c826112c1565b6116368185611610565b93506116468185602086016112cc565b61164f816112ff565b840191505092915050565b600060a0830160008301516116726000860182611601565b506020830151848203602086015261168a8282611621565b915050604083015184820360408601526116a48282611621565b91505060608301516116b96060860182611601565b5060808301516116cc6080860182611601565b508091505092915050565b60006116e3838361165a565b905092915050565b6000602082019050919050565b6000611703826115d5565b61170d81856115e0565b93508360208202850161171f856115f1565b8060005b8581101561175b578484038952815161173c85826116d7565b9450611747836116eb565b925060208a01995050600181019050611723565b50829750879550505050505092915050565b6000602082019050818103600083015261178781846116f8565b905092915050565b7f4f6e6c79206f776e657221000000000000000000000000000000000000000000600082015250565b60006117c5600b836110bf565b91506117d08261178f565b602082019050919050565b600060208201905081810360008301526117f4816117b8565b9050919050565b7f4e487b7100000000000000000000000000000000000000000000000000000000600052603260045260246000fd5b7f416c72656164792064656c697665726564210000000000000000000000000000600082015250565b60006118606012836110bf565b915061186b8261182a565b602082019050919050565b6000602082019050818103600083015261188f81611853565b9050919050565b7f4e487b7100000000000000000000000000000000000000000000000000000000600052602260045260246000fd5b600060028204905060018216806118dd57607f821691505b6020821081036118f0576118ef611896565b5b50919050565b600081905092915050565b60008190508160005260206000209050919050565b60008154611923816118c5565b61192d81866118f6565b9450600182166000811461194857600181146119595761198c565b60ff1983168652818601935061198c565b61196285611901565b60005b8381101561198457815481890152600182019150602081019050611965565b838801955050505b50505092915050565b60006119a18284611916565b915081905092915050565b7f4e6f7420656e6f7567682066756e647321000000000000000000000000000000600082015250565b60006119e26011836110bf565b91506119ed826119ac565b602082019050919050565b60006020820190508181036000830152611a11816119d5565b9050919050565b7f4e487b7100000000000000000000000000000000000000000000000000000000600052601160045260246000fd5b6000611a528261116c565b91507fffffffffffffffffffffffffffffffffffffffffffffffffffffffffffffffff8203611a8457611a83611a18565b5b600182019050919050565b6000611a9a8261116c565b9150611aa58361116c565b9250817fffffffffffffffffffffffffffffffffffffffffffffffffffffffffffffffff0483118215151615611ade57611add611a18565b5b828202905092915050565b7f496e76616c696420707269636521000000000000000000000000000000000000600082015250565b6000611b1f600e836110bf565b9150611b2a82611ae9565b602082019050919050565b60006020820190508181036000830152611b4e81611b12565b9050919050565b7f4f7574206f662073746f636b2100000000000000000000000000000000000000600082015250565b6000611b8b600d836110bf565b9150611b9682611b55565b602082019050919050565b60006020820190508181036000830152611bba81611b7e565b9050919050565b6000611bcc8261116c565b9150611bd78361116c565b925082821015611bea57611be9611a18565b5b828203905092915050565b60008154611c02816118c5565b611c0c81866110bf565b94506001821660008114611c275760018114611c3957611c6c565b60ff1983168652602086019350611c6c565b611c4285611901565b60005b83811015611c6457815481890152600182019150602081019050611c45565b808801955050505b50505092915050565b60006040820190508181036000830152611c8f8185611bf5565b9050611c9e60208301846111cf565b9392505050565b7f4e487b7100000000000000000000000000000000000000000000000000000000600052604160045260246000fdfea26469706673582212200ec2d8f3612b84dfbf8172d15375a2b703d3af27bb188107052a5dae840aa2df64736f6c634300080d0033",
  "devdoc": {
    "kind": "dev",
    "methods": {},
    "version": 1
  },
  "userdoc": {
    "kind": "user",
    "methods": {},
    "version": 1
  },
  "storageLayout": {
    "storage": [
      {
        "astId": 3,
        "contract": "contracts/MusicShop.sol:MusicShop",
        "label": "owner",
        "offset": 0,
        "slot": "0",
        "type": "t_address"
      },
      {
        "astId": 76,
        "contract": "contracts/MusicShop.sol:MusicShop",
        "label": "albums",
        "offset": 0,
        "slot": "1",
        "type": "t_array(t_struct(Album)55_storage)dyn_storage"
      },
      {
        "astId": 80,
        "contract": "contracts/MusicShop.sol:MusicShop",
        "label": "orders",
        "offset": 0,
        "slot": "2",
        "type": "t_array(t_struct(Order)69_storage)dyn_storage"
      },
      {
        "astId": 82,
        "contract": "contracts/MusicShop.sol:MusicShop",
        "label": "currentIndex",
        "offset": 0,
        "slot": "3",
        "type": "t_uint256"
      },
      {
        "astId": 84,
        "contract": "contracts/MusicShop.sol:MusicShop",
        "label": "currentOrderId",
        "offset": 0,
        "slot": "4",
        "type": "t_uint256"
      }
    ],
    "types": {
      "t_address": {
        "encoding": "inplace",
        "label": "address",
        "numberOfBytes": "20"
      },
      "t_array(t_struct(Album)55_storage)dyn_storage": {
        "base": "t_struct(Album)55_storage",
        "encoding": "dynamic_array",
        "label": "struct MusicShop.Album[]",
        "numberOfBytes": "32"
      },
      "t_array(t_struct(Order)69_storage)dyn_storage": {
        "base": "t_struct(Order)69_storage",
        "encoding": "dynamic_array",
        "label": "struct MusicShop.Order[]",
        "numberOfBytes": "32"
      },
      "t_enum(OrderStatus)72": {
        "encoding": "inplace",
        "label": "enum MusicShop.OrderStatus",
        "numberOfBytes": "1"
      },
      "t_string_storage": {
        "encoding": "bytes",
        "label": "string",
        "numberOfBytes": "32"
      },
      "t_struct(Album)55_storage": {
        "encoding": "inplace",
        "label": "struct MusicShop.Album",
        "members": [
          {
            "astId": 46,
            "contract": "contracts/MusicShop.sol:MusicShop",
            "label": "index",
            "offset": 0,
            "slot": "0",
            "type": "t_uint256"
          },
          {
            "astId": 48,
            "contract": "contracts/MusicShop.sol:MusicShop",
            "label": "uuid",
            "offset": 0,
            "slot": "1",
            "type": "t_string_storage"
          },
          {
            "astId": 50,
            "contract": "contracts/MusicShop.sol:MusicShop",
            "label": "title",
            "offset": 0,
            "slot": "2",
            "type": "t_string_storage"
          },
          {
            "astId": 52,
            "contract": "contracts/MusicShop.sol:MusicShop",
            "label": "price",
            "offset": 0,
            "slot": "3",
            "type": "t_uint256"
          },
          {
            "astId": 54,
            "contract": "contracts/MusicShop.sol:MusicShop",
            "label": "quantity",
            "offset": 0,
            "slot": "4",
            "type": "t_uint256"
          }
        ],
        "numberOfBytes": "160"
      },
      "t_struct(Order)69_storage": {
        "encoding": "inplace",
        "label": "struct MusicShop.Order",
        "members": [
          {
            "astId": 57,
            "contract": "contracts/MusicShop.sol:MusicShop",
            "label": "orderId",
            "offset": 0,
            "slot": "0",
            "type": "t_uint256"
          },
          {
            "astId": 59,
            "contract": "contracts/MusicShop.sol:MusicShop",
            "label": "albumUuid",
            "offset": 0,
            "slot": "1",
            "type": "t_string_storage"
          },
          {
            "astId": 61,
            "contract": "contracts/MusicShop.sol:MusicShop",
            "label": "customer",
            "offset": 0,
            "slot": "2",
            "type": "t_address"
          },
          {
            "astId": 63,
            "contract": "contracts/MusicShop.sol:MusicShop",
            "label": "orderedAt",
            "offset": 0,
            "slot": "3",
            "type": "t_uint256"
          },
          {
            "astId": 66,
            "contract": "contracts/MusicShop.sol:MusicShop",
            "label": "status",
            "offset": 0,
            "slot": "4",
            "type": "t_enum(OrderStatus)72"
          },
          {
            "astId": 68,
            "contract": "contracts/MusicShop.sol:MusicShop",
            "label": "quantity",
            "offset": 0,
            "slot": "5",
            "type": "t_uint256"
          }
        ],
        "numberOfBytes": "192"
      },
      "t_uint256": {
        "encoding": "inplace",
        "label": "uint256",
        "numberOfBytes": "32"
      }
    }
  }
}