{
  "address": "0x5FbDB2315678afecb367f032d93F642f64180aa3",
  "abi": [
    {
      "inputs": [],
      "stateMutability": "nonpayable",
      "type": "constructor"
    },
    {
      "anonymous": false,
      "inputs": [
        {
          "indexed": true,
          "internalType": "string",
          "name": "albumUuid",
          "type": "string"
        },
        {
          "indexed": false,
          "internalType": "string",
          "name": "rawUuid",
          "type": "string"
        },
        {
          "indexed": true,
          "internalType": "address",
          "name": "buyer",
          "type": "address"
        },
        {
          "indexed": true,
          "internalType": "uint256",
          "name": "time",
          "type": "uint256"
        },
        {
          "indexed": false,
          "internalType": "uint256",
          "name": "quantity",
          "type": "uint256"
        }
      ],
      "name": "AlbumBought",
      "type": "event"
    },
    {
      "anonymous": false,
      "inputs": [
        {
          "indexed": true,
          "internalType": "string",
          "name": "albumUuid",
          "type": "string"
        },
        {
          "indexed": true,
          "internalType": "address",
          "name": "customer",
          "type": "address"
        },
        {
          "indexed": false,
          "internalType": "uint256",
          "name": "timeDelivered",
          "type": "uint256"
        }
      ],
      "name": "OrderDelivered",
      "type": "event"
    },
    {
      "inputs": [
        {
          "internalType": "string",
          "name": "_uuid",
          "type": "string"
        },
        {
          "internalType": "string",
          "name": "_title",
          "type": "string"
        },
        {
          "internalType": "uint256",
          "name": "_price",
          "type": "uint256"
        },
        {
          "internalType": "uint256",
          "name": "_quantity",
          "type": "uint256"
        }
      ],
      "name": "addAlbum",
      "outputs": [],
      "stateMutability": "nonpayable",
      "type": "function"
    },
    {
      "inputs": [
        {
          "internalType": "uint256",
          "name": "",
          "type": "uint256"
        }
      ],
      "name": "albums",
      "outputs": [
        {
          "internalType": "uint256",
          "name": "index",
          "type": "uint256"
        },
        {
          "internalType": "string",
          "name": "uuid",
          "type": "string"
        },
        {
          "internalType": "string",
          "name": "title",
          "type": "string"
        },
        {
          "internalType": "uint256",
          "name": "price",
          "type": "uint256"
        },
        {
          "internalType": "uint256",
          "name": "quantity",
          "type": "uint256"
        }
      ],
      "stateMutability": "view",
      "type": "function"
    },
    {
      "inputs": [],
      "name": "allAlbums",
      "outputs": [
        {
          "components": [
            {
              "internalType": "uint256",
              "name": "index",
              "type": "uint256"
            },
            {
              "internalType": "string",
              "name": "uuid",
              "type": "string"
            },
            {
              "internalType": "string",
              "name": "title",
              "type": "string"
            },
            {
              "internalType": "uint256",
              "name": "price",
              "type": "uint256"
            },
            {
              "internalType": "uint256",
              "name": "quantity",
              "type": "uint256"
            }
          ],
          "internalType": "struct MusicShop.Album[]",
          "name": "",
          "type": "tuple[]"
        }
      ],
      "stateMutability": "view",
      "type": "function"
    },
    {
      "inputs": [
        {
          "internalType": "uint256",
          "name": "_index",
          "type": "uint256"
        },
        {
          "internalType": "uint256",
          "name": "_quantity",
          "type": "uint256"
        }
      ],
      "name": "buy",
      "outputs": [],
      "stateMutability": "payable",
      "type": "function"
    },
    {
      "inputs": [],
      "name": "currentIndex",
      "outputs": [
        {
          "internalType": "uint256",
          "name": "",
          "type": "uint256"
        }
      ],
      "stateMutability": "view",
      "type": "function"
    },
    {
      "inputs": [],
      "name": "currentOrderId",
      "outputs": [
        {
          "internalType": "uint256",
          "name": "",
          "type": "uint256"
        }
      ],
      "stateMutability": "view",
      "type": "function"
    },
    {
      "inputs": [
        {
          "internalType": "uint256",
          "name": "_index",
          "type": "uint256"
        }
      ],
      "name": "delivery",
      "outputs": [],
      "stateMutability": "nonpayable",
      "type": "function"
    },
    {
      "inputs": [],
      "name": "fund",
      "outputs": [],
      "stateMutability": "payable",
      "type": "function"
    },
    {
      "inputs": [
        {
          "internalType": "uint256",
          "name": "",
          "type": "uint256"
        }
      ],
      "name": "orders",
      "outputs": [
        {
          "internalType": "uint256",
          "name": "orderId",
          "type": "uint256"
        },
        {
          "internalType": "string",
          "name": "albumUuid",
          "type": "string"
        },
        {
          "internalType": "address",
          "name": "customer",
          "type": "address"
        },
        {
          "internalType": "uint256",
          "name": "orderedAt",
          "type": "uint256"
        },
        {
          "internalType": "enum MusicShop.OrderStatus",
          "name": "status",
          "type": "uint8"
        },
        {
          "internalType": "uint256",
          "name": "quantity",
          "type": "uint256"
        }
      ],
      "stateMutability": "view",
      "type": "function"
    },
    {
      "inputs": [],
      "name": "owner",
      "outputs": [
        {
          "internalType": "address",
          "name": "",
          "type": "address"
        }
      ],
      "stateMutability": "view",
      "type": "function"
    },
    {
      "inputs": [
        {
          "internalType": "uint256",
          "name": "_amount",
          "type": "uint256"
        },
        {
          "internalType": "address",
          "name": "_to",
          "type": "address"
        }
      ],
      "name": "withDraw",
      "outputs": [],
      "stateMutability": "nonpayable",
      "type": "function"
    },
    {
      "stateMutability": "payable",
      "type": "receive"
    }
  ],
  "transactionHash": "0xa8d7cb5fd1e18a217176445fc91c3a9cc8d045366f9b7fd093c33d1a687cb5f8",
  "args": [],
  "numDeployments": 1,
  "solcInputHash": "837c86bb6b7a4eb66a313fcef2ab6b6c",
  "bytecode": "0x608060405234801561001057600080fd5b50336000806101000a81548173ffffffffffffffffffffffffffffffffffffffff021916908373ffffffffffffffffffffffffffffffffffffffff160217905550611d0b806100606000396000f3fe6080604052600436106100a05760003560e01c8063a85c38ef11610064578063a85c38ef146101b8578063b60d4288146101fa578063c557f97914610204578063d6febde81461022d578063ea5df05914610249578063ec34297a1461028a576100e0565b80631144fd72146100e557806326987b601461010e578063845fb211146101395780638da5cb5b14610162578063925931fc1461018d576100e0565b366100e0576040517f08c379a00000000000000000000000000000000000000000000000000000000081526004016100d790611143565b60405180910390fd5b600080fd5b3480156100f157600080fd5b5061010c600480360381019061010791906111a3565b6102b5565b005b34801561011a57600080fd5b5061012361049c565b60405161013091906111df565b60405180910390f35b34801561014557600080fd5b50610160600480360381019061015b9190611258565b6104a2565b005b34801561016e57600080fd5b506101776105be565b60405161018491906112a7565b60405180910390f35b34801561019957600080fd5b506101a26105e2565b6040516101af91906111df565b60405180910390f35b3480156101c457600080fd5b506101df60048036038101906101da91906111a3565b6105e8565b6040516101f1969594939291906113c1565b60405180910390f35b6102026106e9565b005b34801561021057600080fd5b5061022b6004803603810190610226919061148e565b610779565b005b61024760048036038101906102429190611535565b61095b565b005b34801561025557600080fd5b50610270600480360381019061026b91906111a3565b610c81565b604051610281959493929190611575565b60405180910390f35b34801561029657600080fd5b5061029f610dd7565b6040516102ac919061176e565b60405180910390f35b60008054906101000a900473ffffffffffffffffffffffffffffffffffffffff1673ffffffffffffffffffffffffffffffffffffffff163373ffffffffffffffffffffffffffffffffffffffff1614610343576040517f08c379a000000000000000000000000000000000000000000000000000000000815260040161033a906117dc565b60405180910390fd5b600060028281548110610359576103586117fc565b5b9060005260206000209060060201905060018081111561037c5761037b61134a565b5b8160040160009054906101000a900460ff1660018111156103a05761039f61134a565b5b036103e0576040517f08c379a00000000000000000000000000000000000000000000000000000000081526004016103d790611877565b60405180910390fd5b60018160040160006101000a81548160ff021916908360018111156104085761040761134a565b5b02179055508060020160009054906101000a900473ffffffffffffffffffffffffffffffffffffffff1673ffffffffffffffffffffffffffffffffffffffff16816001016040516104599190611996565b60405180910390207f42d4271ab53ccf6030b63b729f9a2aa750783535cde717ffb61779d75d1d5c3c4260405161049091906111df565b60405180910390a35050565b60035481565b60008054906101000a900473ffffffffffffffffffffffffffffffffffffffff1673ffffffffffffffffffffffffffffffffffffffff163373ffffffffffffffffffffffffffffffffffffffff1614610530576040517f08c379a0000000000000000000000000000000000000000000000000000000008152600401610527906117dc565b60405180910390fd5b47821115610573576040517f08c379a000000000000000000000000000000000000000000000000000000000815260040161056a906119f9565b60405180910390fd5b8073ffffffffffffffffffffffffffffffffffffffff166108fc839081150290604051600060405180830381858888f193505050501580156105b9573d6000803e3d6000fd5b505050565b60008054906101000a900473ffffffffffffffffffffffffffffffffffffffff1681565b60045481565b600281815481106105f857600080fd5b9060005260206000209060060201600091509050806000015490806001018054610621906118c6565b80601f016020809104026020016040519081016040528092919081815260200182805461064d906118c6565b801561069a5780601f1061066f5761010080835404028352916020019161069a565b820191906000526020600020905b81548152906001019060200180831161067d57829003601f168201915b5050505050908060020160009054906101000a900473ffffffffffffffffffffffffffffffffffffffff16908060030154908060040160009054906101000a900460ff16908060050154905086565b60008054906101000a900473ffffffffffffffffffffffffffffffffffffffff1673ffffffffffffffffffffffffffffffffffffffff163373ffffffffffffffffffffffffffffffffffffffff1614610777576040517f08c379a000000000000000000000000000000000000000000000000000000000815260040161076e906117dc565b60405180910390fd5b565b60008054906101000a900473ffffffffffffffffffffffffffffffffffffffff1673ffffffffffffffffffffffffffffffffffffffff163373ffffffffffffffffffffffffffffffffffffffff1614610807576040517f08c379a00000000000000000000000000000000000000000000000000000000081526004016107fe906117dc565b60405180910390fd5b60016040518060a00160405280600354815260200188888080601f016020809104026020016040519081016040528093929190818152602001838380828437600081840152601f19601f82011690508083019250505050505050815260200186868080601f016020809104026020016040519081016040528093929190818152602001838380828437600081840152601f19601f820116905080830192505050505050508152602001848152602001838152509080600181540180825580915050600190039060005260206000209060050201600090919091909150600082015181600001556020820151816001019080519060200190610909929190610fee565b506040820151816002019080519060200190610926929190610fee565b506060820151816003015560808201518160040155505060036000815461094c90611a48565b91905081905550505050505050565b600060018381548110610971576109706117fc565b5b906000526020600020906005020190508181600301546109919190611a90565b34146109d2576040517f08c379a00000000000000000000000000000000000000000000000000000000081526004016109c990611b36565b60405180910390fd5b8181600401541015610a19576040517f08c379a0000000000000000000000000000000000000000000000000000000008152600401610a1090611ba2565b60405180910390fd5b81816004016000828254610a2d9190611bc2565b9250508190555060026040518060c001604052806004548152602001836001018054610a58906118c6565b80601f0160208091040260200160405190810160405280929190818152602001828054610a84906118c6565b8015610ad15780601f10610aa657610100808354040283529160200191610ad1565b820191906000526020600020905b815481529060010190602001808311610ab457829003601f168201915b505050505081526020013373ffffffffffffffffffffffffffffffffffffffff16815260200142815260200160006001811115610b1157610b1061134a565b5b8152602001848152509080600181540180825580915050600190039060005260206000209060060201600090919091909150600082015181600001556020820151816001019080519060200190610b69929190610fee565b5060408201518160020160006101000a81548173ffffffffffffffffffffffffffffffffffffffff021916908373ffffffffffffffffffffffffffffffffffffffff1602179055506060820151816003015560808201518160040160006101000a81548160ff02191690836001811115610be657610be561134a565b5b021790555060a08201518160050155505060046000815480929190610c0a90611a48565b9190505550423373ffffffffffffffffffffffffffffffffffffffff1682600101604051610c389190611996565b60405180910390207f267f4f751ab194c1be4f8d4a714d650b931cd77b2b2d058e850ce510df4195158460010186604051610c74929190611c76565b60405180910390a4505050565b60018181548110610c9157600080fd5b9060005260206000209060050201600091509050806000015490806001018054610cba906118c6565b80601f0160208091040260200160405190810160405280929190818152602001828054610ce6906118c6565b8015610d335780601f10610d0857610100808354040283529160200191610d33565b820191906000526020600020905b815481529060010190602001808311610d1657829003601f168201915b505050505090806002018054610d48906118c6565b80601f0160208091040260200160405190810160405280929190818152602001828054610d74906118c6565b8015610dc15780601f10610d9657610100808354040283529160200191610dc1565b820191906000526020600020905b815481529060010190602001808311610da457829003601f168201915b5050505050908060030154908060040154905085565b6060600060018054905067ffffffffffffffff811115610dfa57610df9611ca6565b5b604051908082528060200260200182016040528015610e3357816020015b610e20611074565b815260200190600190039081610e185790505b50905060005b600180549050811015610fe65760018181548110610e5a57610e596117fc565b5b90600052602060002090600502016040518060a001604052908160008201548152602001600182018054610e8d906118c6565b80601f0160208091040260200160405190810160405280929190818152602001828054610eb9906118c6565b8015610f065780601f10610edb57610100808354040283529160200191610f06565b820191906000526020600020905b815481529060010190602001808311610ee957829003601f168201915b50505050508152602001600282018054610f1f906118c6565b80601f0160208091040260200160405190810160405280929190818152602001828054610f4b906118c6565b8015610f985780601f10610f6d57610100808354040283529160200191610f98565b820191906000526020600020905b815481529060010190602001808311610f7b57829003601f168201915b5050505050815260200160038201548152602001600482015481525050828281518110610fc857610fc76117fc565b5b60200260200101819052508080610fde90611a48565b915050610e39565b508091505090565b828054610ffa906118c6565b90600052602060002090601f01602090048101928261101c5760008555611063565b82601f1061103557805160ff1916838001178555611063565b82800160010185558215611063579182015b82811115611062578251825591602001919060010190611047565b5b50905061107091906110a3565b5090565b6040518060a0016040528060008152602001606081526020016060815260200160008152602001600081525090565b5b808211156110bc5760008160009055506001016110a4565b5090565b600082825260208201905092915050565b7f506c732c20757365206275792066756e6320746f2063686f6f736520616c627560008201527f6d21000000000000000000000000000000000000000000000000000000000000602082015250565b600061112d6022836110c0565b9150611138826110d1565b604082019050919050565b6000602082019050818103600083015261115c81611120565b9050919050565b600080fd5b600080fd5b6000819050919050565b6111808161116d565b811461118b57600080fd5b50565b60008135905061119d81611177565b92915050565b6000602082840312156111b9576111b8611163565b5b60006111c78482850161118e565b91505092915050565b6111d98161116d565b82525050565b60006020820190506111f460008301846111d0565b92915050565b600073ffffffffffffffffffffffffffffffffffffffff82169050919050565b6000611225826111fa565b9050919050565b6112358161121a565b811461124057600080fd5b50565b6000813590506112528161122c565b92915050565b6000806040838503121561126f5761126e611163565b5b600061127d8582860161118e565b925050602061128e85828601611243565b9150509250929050565b6112a18161121a565b82525050565b60006020820190506112bc6000830184611298565b92915050565b600081519050919050565b60005b838110156112eb5780820151818401526020810190506112d0565b838111156112fa576000848401525b50505050565b6000601f19601f8301169050919050565b600061131c826112c2565b61132681856110c0565b93506113368185602086016112cd565b61133f81611300565b840191505092915050565b7f4e487b7100000000000000000000000000000000000000000000000000000000600052602160045260246000fd5b6002811061138a5761138961134a565b5b50565b600081905061139b82611379565b919050565b60006113ab8261138d565b9050919050565b6113bb816113a0565b82525050565b600060c0820190506113d660008301896111d0565b81810360208301526113e88188611311565b90506113f76040830187611298565b61140460608301866111d0565b61141160808301856113b2565b61141e60a08301846111d0565b979650505050505050565b600080fd5b600080fd5b600080fd5b60008083601f84011261144e5761144d611429565b5b8235905067ffffffffffffffff81111561146b5761146a61142e565b5b60208301915083600182028301111561148757611486611433565b5b9250929050565b600080600080600080608087890312156114ab576114aa611163565b5b600087013567ffffffffffffffff8111156114c9576114c8611168565b5b6114d589828a01611438565b9650965050602087013567ffffffffffffffff8111156114f8576114f7611168565b5b61150489828a01611438565b9450945050604061151789828a0161118e565b925050606061152889828a0161118e565b9150509295509295509295565b6000806040838503121561154c5761154b611163565b5b600061155a8582860161118e565b925050602061156b8582860161118e565b9150509250929050565b600060a08201905061158a60008301886111d0565b818103602083015261159c8187611311565b905081810360408301526115b08186611311565b90506115bf60608301856111d0565b6115cc60808301846111d0565b9695505050505050565b600081519050919050565b600082825260208201905092915050565b6000819050602082019050919050565b61160b8161116d565b82525050565b600082825260208201905092915050565b600061162d826112c2565b6116378185611611565b93506116478185602086016112cd565b61165081611300565b840191505092915050565b600060a0830160008301516116736000860182611602565b506020830151848203602086015261168b8282611622565b915050604083015184820360408601526116a58282611622565b91505060608301516116ba6060860182611602565b5060808301516116cd6080860182611602565b508091505092915050565b60006116e4838361165b565b905092915050565b6000602082019050919050565b6000611704826115d6565b61170e81856115e1565b935083602082028501611720856115f2565b8060005b8581101561175c578484038952815161173d85826116d8565b9450611748836116ec565b925060208a01995050600181019050611724565b50829750879550505050505092915050565b6000602082019050818103600083015261178881846116f9565b905092915050565b7f4f6e6c79206f776e657221000000000000000000000000000000000000000000600082015250565b60006117c6600b836110c0565b91506117d182611790565b602082019050919050565b600060208201905081810360008301526117f5816117b9565b9050919050565b7f4e487b7100000000000000000000000000000000000000000000000000000000600052603260045260246000fd5b7f416c72656164792064656c697665726564210000000000000000000000000000600082015250565b60006118616012836110c0565b915061186c8261182b565b602082019050919050565b6000602082019050818103600083015261189081611854565b9050919050565b7f4e487b7100000000000000000000000000000000000000000000000000000000600052602260045260246000fd5b600060028204905060018216806118de57607f821691505b6020821081036118f1576118f0611897565b5b50919050565b600081905092915050565b60008190508160005260206000209050919050565b60008154611924816118c6565b61192e81866118f7565b94506001821660008114611949576001811461195a5761198d565b60ff1983168652818601935061198d565b61196385611902565b60005b8381101561198557815481890152600182019150602081019050611966565b838801955050505b50505092915050565b60006119a28284611917565b915081905092915050565b7f4e6f7420656e6f7567682066756e647321000000000000000000000000000000600082015250565b60006119e36011836110c0565b91506119ee826119ad565b602082019050919050565b60006020820190508181036000830152611a12816119d6565b9050919050565b7f4e487b7100000000000000000000000000000000000000000000000000000000600052601160045260246000fd5b6000611a538261116d565b91507fffffffffffffffffffffffffffffffffffffffffffffffffffffffffffffffff8203611a8557611a84611a19565b5b600182019050919050565b6000611a9b8261116d565b9150611aa68361116d565b9250817fffffffffffffffffffffffffffffffffffffffffffffffffffffffffffffffff0483118215151615611adf57611ade611a19565b5b828202905092915050565b7f496e76616c696420707269636521000000000000000000000000000000000000600082015250565b6000611b20600e836110c0565b9150611b2b82611aea565b602082019050919050565b60006020820190508181036000830152611b4f81611b13565b9050919050565b7f4f7574206f662073746f636b2100000000000000000000000000000000000000600082015250565b6000611b8c600d836110c0565b9150611b9782611b56565b602082019050919050565b60006020820190508181036000830152611bbb81611b7f565b9050919050565b6000611bcd8261116d565b9150611bd88361116d565b925082821015611beb57611bea611a19565b5b828203905092915050565b60008154611c03816118c6565b611c0d81866110c0565b94506001821660008114611c285760018114611c3a57611c6d565b60ff1983168652602086019350611c6d565b611c4385611902565b60005b83811015611c6557815481890152600182019150602081019050611c46565b808801955050505b50505092915050565b60006040820190508181036000830152611c908185611bf6565b9050611c9f60208301846111d0565b9392505050565b7f4e487b7100000000000000000000000000000000000000000000000000000000600052604160045260246000fdfea2646970667358221220ccd91ed7cd7f3da163d67b234e2e6e08dc64fd99ac65f9bca81d716188e40bf164736f6c634300080d0033",
  "devdoc": {
    "kind": "dev",
    "methods": {},
    "version": 1
  },
  "userdoc": {
    "kind": "user",
    "methods": {},
    "version": 1
  },
  "storageLayout": {
    "storage": [
      {
        "astId": 3,
        "contract": "contracts/MusicShop.sol:MusicShop",
        "label": "owner",
        "offset": 0,
        "slot": "0",
        "type": "t_address"
      },
      {
        "astId": 76,
        "contract": "contracts/MusicShop.sol:MusicShop",
        "label": "albums",
        "offset": 0,
        "slot": "1",
        "type": "t_array(t_struct(Album)55_storage)dyn_storage"
      },
      {
        "astId": 80,
        "contract": "contracts/MusicShop.sol:MusicShop",
        "label": "orders",
        "offset": 0,
        "slot": "2",
        "type": "t_array(t_struct(Order)69_storage)dyn_storage"
      },
      {
        "astId": 82,
        "contract": "contracts/MusicShop.sol:MusicShop",
        "label": "currentIndex",
        "offset": 0,
        "slot": "3",
        "type": "t_uint256"
      },
      {
        "astId": 84,
        "contract": "contracts/MusicShop.sol:MusicShop",
        "label": "currentOrderId",
        "offset": 0,
        "slot": "4",
        "type": "t_uint256"
      }
    ],
    "types": {
      "t_address": {
        "encoding": "inplace",
        "label": "address",
        "numberOfBytes": "20"
      },
      "t_array(t_struct(Album)55_storage)dyn_storage": {
        "base": "t_struct(Album)55_storage",
        "encoding": "dynamic_array",
        "label": "struct MusicShop.Album[]",
        "numberOfBytes": "32"
      },
      "t_array(t_struct(Order)69_storage)dyn_storage": {
        "base": "t_struct(Order)69_storage",
        "encoding": "dynamic_array",
        "label": "struct MusicShop.Order[]",
        "numberOfBytes": "32"
      },
      "t_enum(OrderStatus)72": {
        "encoding": "inplace",
        "label": "enum MusicShop.OrderStatus",
        "numberOfBytes": "1"
      },
      "t_string_storage": {
        "encoding": "bytes",
        "label": "string",
        "numberOfBytes": "32"
      },
      "t_struct(Album)55_storage": {
        "encoding": "inplace",
        "label": "struct MusicShop.Album",
        "members": [
          {
            "astId": 46,
            "contract": "contracts/MusicShop.sol:MusicShop",
            "label": "index",
            "offset": 0,
            "slot": "0",
            "type": "t_uint256"
          },
          {
            "astId": 48,
            "contract": "contracts/MusicShop.sol:MusicShop",
            "label": "uuid",
            "offset": 0,
            "slot": "1",
            "type": "t_string_storage"
          },
          {
            "astId": 50,
            "contract": "contracts/MusicShop.sol:MusicShop",
            "label": "title",
            "offset": 0,
            "slot": "2",
            "type": "t_string_storage"
          },
          {
            "astId": 52,
            "contract": "contracts/MusicShop.sol:MusicShop",
            "label": "price",
            "offset": 0,
            "slot": "3",
            "type": "t_uint256"
          },
          {
            "astId": 54,
            "contract": "contracts/MusicShop.sol:MusicShop",
            "label": "quantity",
            "offset": 0,
            "slot": "4",
            "type": "t_uint256"
          }
        ],
        "numberOfBytes": "160"
      },
      "t_struct(Order)69_storage": {
        "encoding": "inplace",
        "label": "struct MusicShop.Order",
        "members": [
          {
            "astId": 57,
            "contract": "contracts/MusicShop.sol:MusicShop",
            "label": "orderId",
            "offset": 0,
            "slot": "0",
            "type": "t_uint256"
          },
          {
            "astId": 59,
            "contract": "contracts/MusicShop.sol:MusicShop",
            "label": "albumUuid",
            "offset": 0,
            "slot": "1",
            "type": "t_string_storage"
          },
          {
            "astId": 61,
            "contract": "contracts/MusicShop.sol:MusicShop",
            "label": "customer",
            "offset": 0,
            "slot": "2",
            "type": "t_address"
          },
          {
            "astId": 63,
            "contract": "contracts/MusicShop.sol:MusicShop",
            "label": "orderedAt",
            "offset": 0,
            "slot": "3",
            "type": "t_uint256"
          },
          {
            "astId": 66,
            "contract": "contracts/MusicShop.sol:MusicShop",
            "label": "status",
            "offset": 0,
            "slot": "4",
            "type": "t_enum(OrderStatus)72"
          },
          {
            "astId": 68,
            "contract": "contracts/MusicShop.sol:MusicShop",
            "label": "quantity",
            "offset": 0,
            "slot": "5",
            "type": "t_uint256"
          }
        ],
        "numberOfBytes": "192"
      },
      "t_uint256": {
        "encoding": "inplace",
        "label": "uint256",
        "numberOfBytes": "32"
      }
    }
  }
}